{
  "abi": [
    {
      "inputs": [
        {
          "internalType": "uint256",
          "name": "",
          "type": "uint256"
        }
      ],
      "name": "certificates",
      "outputs": [
        {
          "internalType": "uint256",
          "name": "id",
          "type": "uint256"
        },
        {
          "internalType": "string",
          "name": "certificateName",
          "type": "string"
        },
        {
          "internalType": "string",
          "name": "issuedBy",
          "type": "string"
        },
        {
          "internalType": "string",
          "name": "issueDate",
          "type": "string"
        },
        {
          "internalType": "string",
          "name": "expiryDate",
          "type": "string"
        },
        {
          "internalType": "address",
          "name": "owner",
          "type": "address"
        }
      ],
      "stateMutability": "view",
      "type": "function"
    },
    {
      "inputs": [
        {
          "internalType": "uint256",
          "name": "certificateId",
          "type": "uint256"
        }
      ],
      "name": "getCertificate",
      "outputs": [
        {
          "internalType": "uint256",
          "name": "",
          "type": "uint256"
        },
        {
          "internalType": "string",
          "name": "",
          "type": "string"
        },
        {
          "internalType": "string",
          "name": "",
          "type": "string"
        },
        {
          "internalType": "string",
          "name": "",
          "type": "string"
        },
        {
          "internalType": "string",
          "name": "",
          "type": "string"
        },
        {
          "internalType": "address",
          "name": "",
          "type": "address"
        }
      ],
      "stateMutability": "view",
      "type": "function"
    },
    {
      "inputs": [
        {
          "internalType": "string",
          "name": "certificateName",
          "type": "string"
        },
        {
          "internalType": "string",
          "name": "issuedBy",
          "type": "string"
        },
        {
          "internalType": "string",
          "name": "issueDate",
          "type": "string"
        },
        {
          "internalType": "string",
          "name": "expiryDate",
          "type": "string"
        }
      ],
      "name": "issueCertificate",
      "outputs": [
        {
          "internalType": "uint256",
          "name": "",
          "type": "uint256"
        }
      ],
      "stateMutability": "nonpayable",
      "type": "function"
    },
    {
      "inputs": [],
      "name": "nextCertificateId",
      "outputs": [
        {
          "internalType": "uint256",
          "name": "",
          "type": "uint256"
        }
      ],
      "stateMutability": "view",
      "type": "function"
    }
  ],
  "bytecode": "608060405260018055348015601357600080fd5b50610ab8806100236000396000f3fe608060405234801561001057600080fd5b506004361061004c5760003560e01c806351640fee14610051578063663b3e221461007f578063818a299414610092578063a0bdb003146100b3575b600080fd5b61006461005f3660046106e0565b6100bc565b6040516100769695949392919061073f565b60405180910390f35b61006461008d3660046106e0565b6103a3565b6100a56100a0366004610853565b610601565b604051908152602001610076565b6100a560015481565b6000606080606080600080871180156100d6575060015487105b6101265760405162461bcd60e51b815260206004820152601a60248201527f436572746966696361746520646f6573206e6f74206578697374000000000000604482015260640160405180910390fd5b60008781526020819052604090208054600582015460018301805490916002850191600386019160048701916001600160a01b0390911690859061016990610913565b80601f016020809104026020016040519081016040528092919081815260200182805461019590610913565b80156101e25780601f106101b7576101008083540402835291602001916101e2565b820191906000526020600020905b8154815290600101906020018083116101c557829003601f168201915b505050505094508380546101f590610913565b80601f016020809104026020016040519081016040528092919081815260200182805461022190610913565b801561026e5780601f106102435761010080835404028352916020019161026e565b820191906000526020600020905b81548152906001019060200180831161025157829003601f168201915b5050505050935082805461028190610913565b80601f01602080910402602001604051908101604052809291908181526020018280546102ad90610913565b80156102fa5780601f106102cf576101008083540402835291602001916102fa565b820191906000526020600020905b8154815290600101906020018083116102dd57829003601f168201915b5050505050925081805461030d90610913565b80601f016020809104026020016040519081016040528092919081815260200182805461033990610913565b80156103865780601f1061035b57610100808354040283529160200191610386565b820191906000526020600020905b81548152906001019060200180831161036957829003601f168201915b505050505091509650965096509650965096505091939550919395565b600060208190529081526040902080546001820180549192916103c590610913565b80601f01602080910402602001604051908101604052809291908181526020018280546103f190610913565b801561043e5780601f106104135761010080835404028352916020019161043e565b820191906000526020600020905b81548152906001019060200180831161042157829003601f168201915b50505050509080600201805461045390610913565b80601f016020809104026020016040519081016040528092919081815260200182805461047f90610913565b80156104cc5780601f106104a1576101008083540402835291602001916104cc565b820191906000526020600020905b8154815290600101906020018083116104af57829003601f168201915b5050505050908060030180546104e190610913565b80601f016020809104026020016040519081016040528092919081815260200182805461050d90610913565b801561055a5780601f1061052f5761010080835404028352916020019161055a565b820191906000526020600020905b81548152906001019060200180831161053d57829003601f168201915b50505050509080600401805461056f90610913565b80601f016020809104026020016040519081016040528092919081815260200182805461059b90610913565b80156105e85780601f106105bd576101008083540402835291602001916105e8565b820191906000526020600020905b8154815290600101906020018083116105cb57829003601f168201915b505050600590930154919250506001600160a01b031686565b600180546040805160c081018252828152602080820189815282840189905260608301889052608083018790523360a08401526000858152918290529281208251815592519094919291820190610658908261099c565b506040820151600282019061066d908261099c565b5060608201516003820190610682908261099c565b5060808201516004820190610697908261099c565b5060a09190910151600590910180546001600160a01b0319166001600160a01b03909216919091179055600180549060006106d183610a5b565b90915550909695505050505050565b6000602082840312156106f257600080fd5b5035919050565b6000815180845260005b8181101561071f57602081850181015186830182015201610703565b506000602082860101526020601f19601f83011685010191505092915050565b86815260c06020820152600061075860c08301886106f9565b828103604084015261076a81886106f9565b9050828103606084015261077e81876106f9565b9050828103608084015261079281866106f9565b91505060018060a01b03831660a0830152979650505050505050565b634e487b7160e01b600052604160045260246000fd5b600082601f8301126107d557600080fd5b813567ffffffffffffffff8111156107ef576107ef6107ae565b604051601f8201601f19908116603f0116810167ffffffffffffffff8111828210171561081e5761081e6107ae565b60405281815283820160200185101561083657600080fd5b816020850160208301376000918101602001919091529392505050565b6000806000806080858703121561086957600080fd5b843567ffffffffffffffff81111561088057600080fd5b61088c878288016107c4565b945050602085013567ffffffffffffffff8111156108a957600080fd5b6108b5878288016107c4565b935050604085013567ffffffffffffffff8111156108d257600080fd5b6108de878288016107c4565b925050606085013567ffffffffffffffff8111156108fb57600080fd5b610907878288016107c4565b91505092959194509250565b600181811c9082168061092757607f821691505b60208210810361094757634e487b7160e01b600052602260045260246000fd5b50919050565b601f82111561099757806000526020600020601f840160051c810160208510156109745750805b601f840160051c820191505b818110156109945760008155600101610980565b50505b505050565b815167ffffffffffffffff8111156109b6576109b66107ae565b6109ca816109c48454610913565b8461094d565b6020601f8211600181146109fe57600083156109e65750848201515b600019600385901b1c1916600184901b178455610994565b600084815260208120601f198516915b82811015610a2e5787850151825560209485019460019092019101610a0e565b5084821015610a4c5786840151600019600387901b60f8161c191681555b50505050600190811b01905550565b600060018201610a7b57634e487b7160e01b600052601160045260246000fd5b506001019056fea2646970667358221220e5325eaa2ad79f2e7ba667eff05d1a2cc0c77d163d4adf1c0f2e42f2911bdf8264736f6c634300081d0033",
  "bytecodeSha1": "8d5b5a8c849dad0fc07724a8dfbf10ba8453f378",
  "compiler": {
    "evm_version": "istanbul",
    "optimizer": {
      "enabled": true,
      "runs": 200
    },
    "version": "0.8.29+commit.ab55807c"
  },
  "contractName": "Certificate",
  "language": "Solidity",
  "natspec": {
    "kind": "dev",
    "methods": {},
    "version": 1
  },
  "opcodes": "PUSH1 0x80 PUSH1 0x40 MSTORE CALLVALUE DUP1 ISZERO PUSH2 0x10 JUMPI PUSH1 0x0 DUP1 REVERT JUMPDEST POP PUSH1 0x4 CALLDATASIZE LT PUSH2 0x4C JUMPI PUSH1 0x0 CALLDATALOAD PUSH1 0xE0 SHR DUP1 PUSH4 0x51640FEE EQ PUSH2 0x51 JUMPI DUP1 PUSH4 0x663B3E22 EQ PUSH2 0x7F JUMPI DUP1 PUSH4 0x818A2994 EQ PUSH2 0x92 JUMPI DUP1 PUSH4 0xA0BDB003 EQ PUSH2 0xB3 JUMPI JUMPDEST PUSH1 0x0 DUP1 REVERT JUMPDEST PUSH2 0x64 PUSH2 0x5F CALLDATASIZE PUSH1 0x4 PUSH2 0x6E0 JUMP JUMPDEST PUSH2 0xBC JUMP JUMPDEST PUSH1 0x40 MLOAD PUSH2 0x76 SWAP7 SWAP6 SWAP5 SWAP4 SWAP3 SWAP2 SWAP1 PUSH2 0x73F JUMP JUMPDEST PUSH1 0x40 MLOAD DUP1 SWAP2 SUB SWAP1 RETURN JUMPDEST PUSH2 0x64 PUSH2 0x8D CALLDATASIZE PUSH1 0x4 PUSH2 0x6E0 JUMP JUMPDEST PUSH2 0x3A3 JUMP JUMPDEST PUSH2 0xA5 PUSH2 0xA0 CALLDATASIZE PUSH1 0x4 PUSH2 0x853 JUMP JUMPDEST PUSH2 0x601 JUMP JUMPDEST PUSH1 0x40 MLOAD SWAP1 DUP2 MSTORE PUSH1 0x20 ADD PUSH2 0x76 JUMP JUMPDEST PUSH2 0xA5 PUSH1 0x1 SLOAD DUP2 JUMP JUMPDEST PUSH1 0x0 PUSH1 0x60 DUP1 PUSH1 0x60 DUP1 PUSH1 0x0 DUP1 DUP8 GT DUP1 ISZERO PUSH2 0xD6 JUMPI POP PUSH1 0x1 SLOAD DUP8 LT JUMPDEST PUSH2 0x126 JUMPI PUSH1 0x40 MLOAD PUSH3 0x461BCD PUSH1 0xE5 SHL DUP2 MSTORE PUSH1 0x20 PUSH1 0x4 DUP3 ADD MSTORE PUSH1 0x1A PUSH1 0x24 DUP3 ADD MSTORE PUSH32 0x436572746966696361746520646F6573206E6F74206578697374000000000000 PUSH1 0x44 DUP3 ADD MSTORE PUSH1 0x64 ADD PUSH1 0x40 MLOAD DUP1 SWAP2 SUB SWAP1 REVERT JUMPDEST PUSH1 0x0 DUP8 DUP2 MSTORE PUSH1 0x20 DUP2 SWAP1 MSTORE PUSH1 0x40 SWAP1 KECCAK256 DUP1 SLOAD PUSH1 0x5 DUP3 ADD SLOAD PUSH1 0x1 DUP4 ADD DUP1 SLOAD SWAP1 SWAP2 PUSH1 0x2 DUP6 ADD SWAP2 PUSH1 0x3 DUP7 ADD SWAP2 PUSH1 0x4 DUP8 ADD SWAP2 PUSH1 0x1 PUSH1 0x1 PUSH1 0xA0 SHL SUB SWAP1 SWAP2 AND SWAP1 DUP6 SWAP1 PUSH2 0x169 SWAP1 PUSH2 0x913 JUMP JUMPDEST DUP1 PUSH1 0x1F ADD PUSH1 0x20 DUP1 SWAP2 DIV MUL PUSH1 0x20 ADD PUSH1 0x40 MLOAD SWAP1 DUP2 ADD PUSH1 0x40 MSTORE DUP1 SWAP3 SWAP2 SWAP1 DUP2 DUP2 MSTORE PUSH1 0x20 ADD DUP3 DUP1 SLOAD PUSH2 0x195 SWAP1 PUSH2 0x913 JUMP JUMPDEST DUP1 ISZERO PUSH2 0x1E2 JUMPI DUP1 PUSH1 0x1F LT PUSH2 0x1B7 JUMPI PUSH2 0x100 DUP1 DUP4 SLOAD DIV MUL DUP4 MSTORE SWAP2 PUSH1 0x20 ADD SWAP2 PUSH2 0x1E2 JUMP JUMPDEST DUP3 ADD SWAP2 SWAP1 PUSH1 0x0 MSTORE PUSH1 0x20 PUSH1 0x0 KECCAK256 SWAP1 JUMPDEST DUP2 SLOAD DUP2 MSTORE SWAP1 PUSH1 0x1 ADD SWAP1 PUSH1 0x20 ADD DUP1 DUP4 GT PUSH2 0x1C5 JUMPI DUP3 SWAP1 SUB PUSH1 0x1F AND DUP3 ADD SWAP2 JUMPDEST POP POP POP POP POP SWAP5 POP DUP4 DUP1 SLOAD PUSH2 0x1F5 SWAP1 PUSH2 0x913 JUMP JUMPDEST DUP1 PUSH1 0x1F ADD PUSH1 0x20 DUP1 SWAP2 DIV MUL PUSH1 0x20 ADD PUSH1 0x40 MLOAD SWAP1 DUP2 ADD PUSH1 0x40 MSTORE DUP1 SWAP3 SWAP2 SWAP1 DUP2 DUP2 MSTORE PUSH1 0x20 ADD DUP3 DUP1 SLOAD PUSH2 0x221 SWAP1 PUSH2 0x913 JUMP JUMPDEST DUP1 ISZERO PUSH2 0x26E JUMPI DUP1 PUSH1 0x1F LT PUSH2 0x243 JUMPI PUSH2 0x100 DUP1 DUP4 SLOAD DIV MUL DUP4 MSTORE SWAP2 PUSH1 0x20 ADD SWAP2 PUSH2 0x26E JUMP JUMPDEST DUP3 ADD SWAP2 SWAP1 PUSH1 0x0 MSTORE PUSH1 0x20 PUSH1 0x0 KECCAK256 SWAP1 JUMPDEST DUP2 SLOAD DUP2 MSTORE SWAP1 PUSH1 0x1 ADD SWAP1 PUSH1 0x20 ADD DUP1 DUP4 GT PUSH2 0x251 JUMPI DUP3 SWAP1 SUB PUSH1 0x1F AND DUP3 ADD SWAP2 JUMPDEST POP POP POP POP POP SWAP4 POP DUP3 DUP1 SLOAD PUSH2 0x281 SWAP1 PUSH2 0x913 JUMP JUMPDEST DUP1 PUSH1 0x1F ADD PUSH1 0x20 DUP1 SWAP2 DIV MUL PUSH1 0x20 ADD PUSH1 0x40 MLOAD SWAP1 DUP2 ADD PUSH1 0x40 MSTORE DUP1 SWAP3 SWAP2 SWAP1 DUP2 DUP2 MSTORE PUSH1 0x20 ADD DUP3 DUP1 SLOAD PUSH2 0x2AD SWAP1 PUSH2 0x913 JUMP JUMPDEST DUP1 ISZERO PUSH2 0x2FA JUMPI DUP1 PUSH1 0x1F LT PUSH2 0x2CF JUMPI PUSH2 0x100 DUP1 DUP4 SLOAD DIV MUL DUP4 MSTORE SWAP2 PUSH1 0x20 ADD SWAP2 PUSH2 0x2FA JUMP JUMPDEST DUP3 ADD SWAP2 SWAP1 PUSH1 0x0 MSTORE PUSH1 0x20 PUSH1 0x0 KECCAK256 SWAP1 JUMPDEST DUP2 SLOAD DUP2 MSTORE SWAP1 PUSH1 0x1 ADD SWAP1 PUSH1 0x20 ADD DUP1 DUP4 GT PUSH2 0x2DD JUMPI DUP3 SWAP1 SUB PUSH1 0x1F AND DUP3 ADD SWAP2 JUMPDEST POP POP POP POP POP SWAP3 POP DUP2 DUP1 SLOAD PUSH2 0x30D SWAP1 PUSH2 0x913 JUMP JUMPDEST DUP1 PUSH1 0x1F ADD PUSH1 0x20 DUP1 SWAP2 DIV MUL PUSH1 0x20 ADD PUSH1 0x40 MLOAD SWAP1 DUP2 ADD PUSH1 0x40 MSTORE DUP1 SWAP3 SWAP2 SWAP1 DUP2 DUP2 MSTORE PUSH1 0x20 ADD DUP3 DUP1 SLOAD PUSH2 0x339 SWAP1 PUSH2 0x913 JUMP JUMPDEST DUP1 ISZERO PUSH2 0x386 JUMPI DUP1 PUSH1 0x1F LT PUSH2 0x35B JUMPI PUSH2 0x100 DUP1 DUP4 SLOAD DIV MUL DUP4 MSTORE SWAP2 PUSH1 0x20 ADD SWAP2 PUSH2 0x386 JUMP JUMPDEST DUP3 ADD SWAP2 SWAP1 PUSH1 0x0 MSTORE PUSH1 0x20 PUSH1 0x0 KECCAK256 SWAP1 JUMPDEST DUP2 SLOAD DUP2 MSTORE SWAP1 PUSH1 0x1 ADD SWAP1 PUSH1 0x20 ADD DUP1 DUP4 GT PUSH2 0x369 JUMPI DUP3 SWAP1 SUB PUSH1 0x1F AND DUP3 ADD SWAP2 JUMPDEST POP POP POP POP POP SWAP2 POP SWAP7 POP SWAP7 POP SWAP7 POP SWAP7 POP SWAP7 POP SWAP7 POP POP SWAP2 SWAP4 SWAP6 POP SWAP2 SWAP4 SWAP6 JUMP JUMPDEST PUSH1 0x0 PUSH1 0x20 DUP2 SWAP1 MSTORE SWAP1 DUP2 MSTORE PUSH1 0x40 SWAP1 KECCAK256 DUP1 SLOAD PUSH1 0x1 DUP3 ADD DUP1 SLOAD SWAP2 SWAP3 SWAP2 PUSH2 0x3C5 SWAP1 PUSH2 0x913 JUMP JUMPDEST DUP1 PUSH1 0x1F ADD PUSH1 0x20 DUP1 SWAP2 DIV MUL PUSH1 0x20 ADD PUSH1 0x40 MLOAD SWAP1 DUP2 ADD PUSH1 0x40 MSTORE DUP1 SWAP3 SWAP2 SWAP1 DUP2 DUP2 MSTORE PUSH1 0x20 ADD DUP3 DUP1 SLOAD PUSH2 0x3F1 SWAP1 PUSH2 0x913 JUMP JUMPDEST DUP1 ISZERO PUSH2 0x43E JUMPI DUP1 PUSH1 0x1F LT PUSH2 0x413 JUMPI PUSH2 0x100 DUP1 DUP4 SLOAD DIV MUL DUP4 MSTORE SWAP2 PUSH1 0x20 ADD SWAP2 PUSH2 0x43E JUMP JUMPDEST DUP3 ADD SWAP2 SWAP1 PUSH1 0x0 MSTORE PUSH1 0x20 PUSH1 0x0 KECCAK256 SWAP1 JUMPDEST DUP2 SLOAD DUP2 MSTORE SWAP1 PUSH1 0x1 ADD SWAP1 PUSH1 0x20 ADD DUP1 DUP4 GT PUSH2 0x421 JUMPI DUP3 SWAP1 SUB PUSH1 0x1F AND DUP3 ADD SWAP2 JUMPDEST POP POP POP POP POP SWAP1 DUP1 PUSH1 0x2 ADD DUP1 SLOAD PUSH2 0x453 SWAP1 PUSH2 0x913 JUMP JUMPDEST DUP1 PUSH1 0x1F ADD PUSH1 0x20 DUP1 SWAP2 DIV MUL PUSH1 0x20 ADD PUSH1 0x40 MLOAD SWAP1 DUP2 ADD PUSH1 0x40 MSTORE DUP1 SWAP3 SWAP2 SWAP1 DUP2 DUP2 MSTORE PUSH1 0x20 ADD DUP3 DUP1 SLOAD PUSH2 0x47F SWAP1 PUSH2 0x913 JUMP JUMPDEST DUP1 ISZERO PUSH2 0x4CC JUMPI DUP1 PUSH1 0x1F LT PUSH2 0x4A1 JUMPI PUSH2 0x100 DUP1 DUP4 SLOAD DIV MUL DUP4 MSTORE SWAP2 PUSH1 0x20 ADD SWAP2 PUSH2 0x4CC JUMP JUMPDEST DUP3 ADD SWAP2 SWAP1 PUSH1 0x0 MSTORE PUSH1 0x20 PUSH1 0x0 KECCAK256 SWAP1 JUMPDEST DUP2 SLOAD DUP2 MSTORE SWAP1 PUSH1 0x1 ADD SWAP1 PUSH1 0x20 ADD DUP1 DUP4 GT PUSH2 0x4AF JUMPI DUP3 SWAP1 SUB PUSH1 0x1F AND DUP3 ADD SWAP2 JUMPDEST POP POP POP POP POP SWAP1 DUP1 PUSH1 0x3 ADD DUP1 SLOAD PUSH2 0x4E1 SWAP1 PUSH2 0x913 JUMP JUMPDEST DUP1 PUSH1 0x1F ADD PUSH1 0x20 DUP1 SWAP2 DIV MUL PUSH1 0x20 ADD PUSH1 0x40 MLOAD SWAP1 DUP2 ADD PUSH1 0x40 MSTORE DUP1 SWAP3 SWAP2 SWAP1 DUP2 DUP2 MSTORE PUSH1 0x20 ADD DUP3 DUP1 SLOAD PUSH2 0x50D SWAP1 PUSH2 0x913 JUMP JUMPDEST DUP1 ISZERO PUSH2 0x55A JUMPI DUP1 PUSH1 0x1F LT PUSH2 0x52F JUMPI PUSH2 0x100 DUP1 DUP4 SLOAD DIV MUL DUP4 MSTORE SWAP2 PUSH1 0x20 ADD SWAP2 PUSH2 0x55A JUMP JUMPDEST DUP3 ADD SWAP2 SWAP1 PUSH1 0x0 MSTORE PUSH1 0x20 PUSH1 0x0 KECCAK256 SWAP1 JUMPDEST DUP2 SLOAD DUP2 MSTORE SWAP1 PUSH1 0x1 ADD SWAP1 PUSH1 0x20 ADD DUP1 DUP4 GT PUSH2 0x53D JUMPI DUP3 SWAP1 SUB PUSH1 0x1F AND DUP3 ADD SWAP2 JUMPDEST POP POP POP POP POP SWAP1 DUP1 PUSH1 0x4 ADD DUP1 SLOAD PUSH2 0x56F SWAP1 PUSH2 0x913 JUMP JUMPDEST DUP1 PUSH1 0x1F ADD PUSH1 0x20 DUP1 SWAP2 DIV MUL PUSH1 0x20 ADD PUSH1 0x40 MLOAD SWAP1 DUP2 ADD PUSH1 0x40 MSTORE DUP1 SWAP3 SWAP2 SWAP1 DUP2 DUP2 MSTORE PUSH1 0x20 ADD DUP3 DUP1 SLOAD PUSH2 0x59B SWAP1 PUSH2 0x913 JUMP JUMPDEST DUP1 ISZERO PUSH2 0x5E8 JUMPI DUP1 PUSH1 0x1F LT PUSH2 0x5BD JUMPI PUSH2 0x100 DUP1 DUP4 SLOAD DIV MUL DUP4 MSTORE SWAP2 PUSH1 0x20 ADD SWAP2 PUSH2 0x5E8 JUMP JUMPDEST DUP3 ADD SWAP2 SWAP1 PUSH1 0x0 MSTORE PUSH1 0x20 PUSH1 0x0 KECCAK256 SWAP1 JUMPDEST DUP2 SLOAD DUP2 MSTORE SWAP1 PUSH1 0x1 ADD SWAP1 PUSH1 0x20 ADD DUP1 DUP4 GT PUSH2 0x5CB JUMPI DUP3 SWAP1 SUB PUSH1 0x1F AND DUP3 ADD SWAP2 JUMPDEST POP POP POP PUSH1 0x5 SWAP1 SWAP4 ADD SLOAD SWAP2 SWAP3 POP POP PUSH1 0x1 PUSH1 0x1 PUSH1 0xA0 SHL SUB AND DUP7 JUMP JUMPDEST PUSH1 0x1 DUP1 SLOAD PUSH1 0x40 DUP1 MLOAD PUSH1 0xC0 DUP2 ADD DUP3 MSTORE DUP3 DUP2 MSTORE PUSH1 0x20 DUP1 DUP3 ADD DUP10 DUP2 MSTORE DUP3 DUP5 ADD DUP10 SWAP1 MSTORE PUSH1 0x60 DUP4 ADD DUP9 SWAP1 MSTORE PUSH1 0x80 DUP4 ADD DUP8 SWAP1 MSTORE CALLER PUSH1 0xA0 DUP5 ADD MSTORE PUSH1 0x0 DUP6 DUP2 MSTORE SWAP2 DUP3 SWAP1 MSTORE SWAP3 DUP2 KECCAK256 DUP3 MLOAD DUP2 SSTORE SWAP3 MLOAD SWAP1 SWAP5 SWAP2 SWAP3 SWAP2 DUP3 ADD SWAP1 PUSH2 0x658 SWAP1 DUP3 PUSH2 0x99C JUMP JUMPDEST POP PUSH1 0x40 DUP3 ADD MLOAD PUSH1 0x2 DUP3 ADD SWAP1 PUSH2 0x66D SWAP1 DUP3 PUSH2 0x99C JUMP JUMPDEST POP PUSH1 0x60 DUP3 ADD MLOAD PUSH1 0x3 DUP3 ADD SWAP1 PUSH2 0x682 SWAP1 DUP3 PUSH2 0x99C JUMP JUMPDEST POP PUSH1 0x80 DUP3 ADD MLOAD PUSH1 0x4 DUP3 ADD SWAP1 PUSH2 0x697 SWAP1 DUP3 PUSH2 0x99C JUMP JUMPDEST POP PUSH1 0xA0 SWAP2 SWAP1 SWAP2 ADD MLOAD PUSH1 0x5 SWAP1 SWAP2 ADD DUP1 SLOAD PUSH1 0x1 PUSH1 0x1 PUSH1 0xA0 SHL SUB NOT AND PUSH1 0x1 PUSH1 0x1 PUSH1 0xA0 SHL SUB SWAP1 SWAP3 AND SWAP2 SWAP1 SWAP2 OR SWAP1 SSTORE PUSH1 0x1 DUP1 SLOAD SWAP1 PUSH1 0x0 PUSH2 0x6D1 DUP4 PUSH2 0xA5B JUMP JUMPDEST SWAP1 SWAP2 SSTORE POP SWAP1 SWAP7 SWAP6 POP POP POP POP POP POP JUMP JUMPDEST PUSH1 0x0 PUSH1 0x20 DUP3 DUP5 SUB SLT ISZERO PUSH2 0x6F2 JUMPI PUSH1 0x0 DUP1 REVERT JUMPDEST POP CALLDATALOAD SWAP2 SWAP1 POP JUMP JUMPDEST PUSH1 0x0 DUP2 MLOAD DUP1 DUP5 MSTORE PUSH1 0x0 JUMPDEST DUP2 DUP2 LT ISZERO PUSH2 0x71F JUMPI PUSH1 0x20 DUP2 DUP6 ADD DUP2 ADD MLOAD DUP7 DUP4 ADD DUP3 ADD MSTORE ADD PUSH2 0x703 JUMP JUMPDEST POP PUSH1 0x0 PUSH1 0x20 DUP3 DUP7 ADD ADD MSTORE PUSH1 0x20 PUSH1 0x1F NOT PUSH1 0x1F DUP4 ADD AND DUP6 ADD ADD SWAP2 POP POP SWAP3 SWAP2 POP POP JUMP JUMPDEST DUP7 DUP2 MSTORE PUSH1 0xC0 PUSH1 0x20 DUP3 ADD MSTORE PUSH1 0x0 PUSH2 0x758 PUSH1 0xC0 DUP4 ADD DUP9 PUSH2 0x6F9 JUMP JUMPDEST DUP3 DUP2 SUB PUSH1 0x40 DUP5 ADD MSTORE PUSH2 0x76A DUP2 DUP9 PUSH2 0x6F9 JUMP JUMPDEST SWAP1 POP DUP3 DUP2 SUB PUSH1 0x60 DUP5 ADD MSTORE PUSH2 0x77E DUP2 DUP8 PUSH2 0x6F9 JUMP JUMPDEST SWAP1 POP DUP3 DUP2 SUB PUSH1 0x80 DUP5 ADD MSTORE PUSH2 0x792 DUP2 DUP7 PUSH2 0x6F9 JUMP JUMPDEST SWAP2 POP POP PUSH1 0x1 DUP1 PUSH1 0xA0 SHL SUB DUP4 AND PUSH1 0xA0 DUP4 ADD MSTORE SWAP8 SWAP7 POP POP POP POP POP POP POP JUMP JUMPDEST PUSH4 0x4E487B71 PUSH1 0xE0 SHL PUSH1 0x0 MSTORE PUSH1 0x41 PUSH1 0x4 MSTORE PUSH1 0x24 PUSH1 0x0 REVERT JUMPDEST PUSH1 0x0 DUP3 PUSH1 0x1F DUP4 ADD SLT PUSH2 0x7D5 JUMPI PUSH1 0x0 DUP1 REVERT JUMPDEST DUP2 CALLDATALOAD PUSH8 0xFFFFFFFFFFFFFFFF DUP2 GT ISZERO PUSH2 0x7EF JUMPI PUSH2 0x7EF PUSH2 0x7AE JUMP JUMPDEST PUSH1 0x40 MLOAD PUSH1 0x1F DUP3 ADD PUSH1 0x1F NOT SWAP1 DUP2 AND PUSH1 0x3F ADD AND DUP2 ADD PUSH8 0xFFFFFFFFFFFFFFFF DUP2 GT DUP3 DUP3 LT OR ISZERO PUSH2 0x81E JUMPI PUSH2 0x81E PUSH2 0x7AE JUMP JUMPDEST PUSH1 0x40 MSTORE DUP2 DUP2 MSTORE DUP4 DUP3 ADD PUSH1 0x20 ADD DUP6 LT ISZERO PUSH2 0x836 JUMPI PUSH1 0x0 DUP1 REVERT JUMPDEST DUP2 PUSH1 0x20 DUP6 ADD PUSH1 0x20 DUP4 ADD CALLDATACOPY PUSH1 0x0 SWAP2 DUP2 ADD PUSH1 0x20 ADD SWAP2 SWAP1 SWAP2 MSTORE SWAP4 SWAP3 POP POP POP JUMP JUMPDEST PUSH1 0x0 DUP1 PUSH1 0x0 DUP1 PUSH1 0x80 DUP6 DUP8 SUB SLT ISZERO PUSH2 0x869 JUMPI PUSH1 0x0 DUP1 REVERT JUMPDEST DUP5 CALLDATALOAD PUSH8 0xFFFFFFFFFFFFFFFF DUP2 GT ISZERO PUSH2 0x880 JUMPI PUSH1 0x0 DUP1 REVERT JUMPDEST PUSH2 0x88C DUP8 DUP3 DUP9 ADD PUSH2 0x7C4 JUMP JUMPDEST SWAP5 POP POP PUSH1 0x20 DUP6 ADD CALLDATALOAD PUSH8 0xFFFFFFFFFFFFFFFF DUP2 GT ISZERO PUSH2 0x8A9 JUMPI PUSH1 0x0 DUP1 REVERT JUMPDEST PUSH2 0x8B5 DUP8 DUP3 DUP9 ADD PUSH2 0x7C4 JUMP JUMPDEST SWAP4 POP POP PUSH1 0x40 DUP6 ADD CALLDATALOAD PUSH8 0xFFFFFFFFFFFFFFFF DUP2 GT ISZERO PUSH2 0x8D2 JUMPI PUSH1 0x0 DUP1 REVERT JUMPDEST PUSH2 0x8DE DUP8 DUP3 DUP9 ADD PUSH2 0x7C4 JUMP JUMPDEST SWAP3 POP POP PUSH1 0x60 DUP6 ADD CALLDATALOAD PUSH8 0xFFFFFFFFFFFFFFFF DUP2 GT ISZERO PUSH2 0x8FB JUMPI PUSH1 0x0 DUP1 REVERT JUMPDEST PUSH2 0x907 DUP8 DUP3 DUP9 ADD PUSH2 0x7C4 JUMP JUMPDEST SWAP2 POP POP SWAP3 SWAP6 SWAP2 SWAP5 POP SWAP3 POP JUMP JUMPDEST PUSH1 0x1 DUP2 DUP2 SHR SWAP1 DUP3 AND DUP1 PUSH2 0x927 JUMPI PUSH1 0x7F DUP3 AND SWAP2 POP JUMPDEST PUSH1 0x20 DUP3 LT DUP2 SUB PUSH2 0x947 JUMPI PUSH4 0x4E487B71 PUSH1 0xE0 SHL PUSH1 0x0 MSTORE PUSH1 0x22 PUSH1 0x4 MSTORE PUSH1 0x24 PUSH1 0x0 REVERT JUMPDEST POP SWAP2 SWAP1 POP JUMP JUMPDEST PUSH1 0x1F DUP3 GT ISZERO PUSH2 0x997 JUMPI DUP1 PUSH1 0x0 MSTORE PUSH1 0x20 PUSH1 0x0 KECCAK256 PUSH1 0x1F DUP5 ADD PUSH1 0x5 SHR DUP2 ADD PUSH1 0x20 DUP6 LT ISZERO PUSH2 0x974 JUMPI POP DUP1 JUMPDEST PUSH1 0x1F DUP5 ADD PUSH1 0x5 SHR DUP3 ADD SWAP2 POP JUMPDEST DUP2 DUP2 LT ISZERO PUSH2 0x994 JUMPI PUSH1 0x0 DUP2 SSTORE PUSH1 0x1 ADD PUSH2 0x980 JUMP JUMPDEST POP POP JUMPDEST POP POP POP JUMP JUMPDEST DUP2 MLOAD PUSH8 0xFFFFFFFFFFFFFFFF DUP2 GT ISZERO PUSH2 0x9B6 JUMPI PUSH2 0x9B6 PUSH2 0x7AE JUMP JUMPDEST PUSH2 0x9CA DUP2 PUSH2 0x9C4 DUP5 SLOAD PUSH2 0x913 JUMP JUMPDEST DUP5 PUSH2 0x94D JUMP JUMPDEST PUSH1 0x20 PUSH1 0x1F DUP3 GT PUSH1 0x1 DUP2 EQ PUSH2 0x9FE JUMPI PUSH1 0x0 DUP4 ISZERO PUSH2 0x9E6 JUMPI POP DUP5 DUP3 ADD MLOAD JUMPDEST PUSH1 0x0 NOT PUSH1 0x3 DUP6 SWAP1 SHL SHR NOT AND PUSH1 0x1 DUP5 SWAP1 SHL OR DUP5 SSTORE PUSH2 0x994 JUMP JUMPDEST PUSH1 0x0 DUP5 DUP2 MSTORE PUSH1 0x20 DUP2 KECCAK256 PUSH1 0x1F NOT DUP6 AND SWAP2 JUMPDEST DUP3 DUP2 LT ISZERO PUSH2 0xA2E JUMPI DUP8 DUP6 ADD MLOAD DUP3 SSTORE PUSH1 0x20 SWAP5 DUP6 ADD SWAP5 PUSH1 0x1 SWAP1 SWAP3 ADD SWAP2 ADD PUSH2 0xA0E JUMP JUMPDEST POP DUP5 DUP3 LT ISZERO PUSH2 0xA4C JUMPI DUP7 DUP5 ADD MLOAD PUSH1 0x0 NOT PUSH1 0x3 DUP8 SWAP1 SHL PUSH1 0xF8 AND SHR NOT AND DUP2 SSTORE JUMPDEST POP POP POP POP PUSH1 0x1 SWAP1 DUP2 SHL ADD SWAP1 SSTORE POP JUMP JUMPDEST PUSH1 0x0 PUSH1 0x1 DUP3 ADD PUSH2 0xA7B JUMPI PUSH4 0x4E487B71 PUSH1 0xE0 SHL PUSH1 0x0 MSTORE PUSH1 0x11 PUSH1 0x4 MSTORE PUSH1 0x24 PUSH1 0x0 REVERT JUMPDEST POP PUSH1 0x1 ADD SWAP1 JUMP INVALID LOG2 PUSH5 0x6970667358 0x22 SLT KECCAK256 JUMPF 0x325E 0xAA 0x2A 0xD7 SWAP16 0x2E PUSH28 0xA667EFF05D1A2CC0C77D163D4ADF1C0F2E42F2911BDF8264736F6C63 NUMBER STOP ADDMOD SAR STOP CALLER ",
  "sha1": "87c0051fb3383ef6d89fde459062f080aafe1898",
  "source": "// SPDX-License-Identifier: MIT\npragma solidity ^0.8.0;\n\ncontract Certificate {\n    struct CertificateData {\n        uint256 id;\n        string certificateName;\n        string issuedBy;\n        string issueDate;\n        string expiryDate;\n        address owner;\n    }\n    \n    mapping(uint256 => CertificateData) public certificates;\n    uint256 public nextCertificateId = 1;\n    \n    function issueCertificate(\n        string memory certificateName,\n        string memory issuedBy,\n        string memory issueDate,\n        string memory expiryDate\n    ) public returns (uint256) {\n        uint256 certId = nextCertificateId;\n        \n        certificates[certId] = CertificateData({\n            id: certId,\n            certificateName: certificateName,\n            issuedBy: issuedBy,\n            issueDate: issueDate,\n            expiryDate: expiryDate,\n            owner: msg.sender\n        });\n        \n        nextCertificateId++;\n        return certId;\n    }\n    \n    function getCertificate(uint256 certificateId) public view returns (\n        uint256, string memory, string memory, string memory, string memory, address\n    ) {\n        require(certificateId > 0 && certificateId < nextCertificateId, \"Certificate does not exist\");\n        CertificateData storage cert = certificates[certificateId];\n        \n        return (\n            cert.id,\n            cert.certificateName,\n            cert.issuedBy,\n            cert.issueDate,\n            cert.expiryDate,\n            cert.owner\n        );\n    }\n}\n",
  "sourcePath": "contracts/Certificate.sol",
  "type": "contract"
}